{
  "_format": "hh-sol-artifact-1",
  "contractName": "WavePortal",
  "sourceName": "contracts/WavePortal.sol",
  "abi": [
    {
      "inputs": [],
      "stateMutability": "payable",
      "type": "constructor"
    },
    {
      "anonymous": false,
      "inputs": [
        {
          "indexed": true,
          "internalType": "address",
          "name": "from",
          "type": "address"
        },
        {
          "indexed": false,
          "internalType": "uint256",
          "name": "timestamp",
          "type": "uint256"
        },
        {
          "indexed": false,
          "internalType": "string",
          "name": "message",
          "type": "string"
        },
        {
          "indexed": false,
          "internalType": "bool",
          "name": "win",
          "type": "bool"
        }
      ],
      "name": "NewWave",
      "type": "event"
    },
    {
      "inputs": [],
      "name": "getAllWaves",
      "outputs": [
        {
          "components": [
            {
              "internalType": "address",
              "name": "waver",
              "type": "address"
            },
            {
              "internalType": "string",
              "name": "mes",
              "type": "string"
            },
            {
              "internalType": "uint256",
              "name": "atTime",
              "type": "uint256"
            }
          ],
          "internalType": "struct WavePortal.Wave[]",
          "name": "",
          "type": "tuple[]"
        }
      ],
      "stateMutability": "view",
      "type": "function"
    },
    {
      "inputs": [],
      "name": "getTotalWaves",
      "outputs": [
        {
          "internalType": "uint256",
          "name": "",
          "type": "uint256"
        }
      ],
      "stateMutability": "view",
      "type": "function"
    },
    {
      "inputs": [
        {
          "internalType": "address",
          "name": "",
          "type": "address"
        }
      ],
      "name": "lastVisited",
      "outputs": [
        {
          "internalType": "uint256",
          "name": "",
          "type": "uint256"
        }
      ],
      "stateMutability": "view",
      "type": "function"
    },
    {
      "inputs": [
        {
          "internalType": "string",
          "name": "_message",
          "type": "string"
        }
      ],
      "name": "wave",
      "outputs": [],
      "stateMutability": "nonpayable",
      "type": "function"
    }
  ],
  "bytecode": "0x608060405260008055620000536040518060400160405280602081526020017f796f20796f204920616d20636f6e7374727563746f722e206c61756473206d658152506200007b60201b620006a51760201c565b60644442620000639190620001c8565b6200006f919062000265565b6001819055506200030c565b6200011b8160405160240162000092919062000188565b6040516020818303038152906040527f41304fac000000000000000000000000000000000000000000000000000000007bffffffffffffffffffffffffffffffffffffffffffffffffffffffff19166020820180517bffffffffffffffffffffffffffffffffffffffffffffffffffffffff83818316178352505050506200011e60201b60201c565b50565b60008151905060006a636f6e736f6c652e6c6f679050602083016000808483855afa5050505050565b60006200015482620001ac565b620001608185620001b7565b9350620001728185602086016200022f565b6200017d81620002fb565b840191505092915050565b60006020820190508181036000830152620001a4818462000147565b905092915050565b600081519050919050565b600082825260208201905092915050565b6000620001d58262000225565b9150620001e28362000225565b9250827fffffffffffffffffffffffffffffffffffffffffffffffffffffffffffffffff038211156200021a57620002196200029d565b5b828201905092915050565b6000819050919050565b60005b838110156200024f57808201518184015260208101905062000232565b838111156200025f576000848401525b50505050565b6000620002728262000225565b91506200027f8362000225565b925082620002925762000291620002cc565b5b828206905092915050565b7f4e487b7100000000000000000000000000000000000000000000000000000000600052601160045260246000fd5b7f4e487b7100000000000000000000000000000000000000000000000000000000600052601260045260246000fd5b6000601f19601f8301169050919050565b6111f4806200031c6000396000f3fe608060405234801561001057600080fd5b506004361061004c5760003560e01c8063449d46c01461005157806366997d1b1461006d5780639a2cdc081461009d578063bd43a908146100bb575b600080fd5b61006b600480360381019061006691906109eb565b6100d9565b005b610087600480360381019061008291906109c2565b6104f1565b6040516100949190610d7c565b60405180910390f35b6100a5610509565b6040516100b29190610d7c565b60405180910390f35b6100c3610554565b6040516100d09190610c63565b60405180910390f35b60016000808282546100eb9190610e9c565b925050819055506101326040518060400160405280601881526020017f25732068617320776176656420616e642073656e742025730000000000000000815250338361073e565b42600f600360003373ffffffffffffffffffffffffffffffffffffffff1673ffffffffffffffffffffffffffffffffffffffff1681526020019081526020016000205461017f9190610e9c565b106101bf576040517f08c379a00000000000000000000000000000000000000000000000000000000081526004016101b690610d1c565b60405180910390fd5b42600360003373ffffffffffffffffffffffffffffffffffffffff1673ffffffffffffffffffffffffffffffffffffffff16815260200190815260200160002081905550600260405180606001604052803373ffffffffffffffffffffffffffffffffffffffff16815260200183815260200142815250908060018154018082558091505060019003906000526020600020906003020160009091909190915060008201518160000160006101000a81548173ffffffffffffffffffffffffffffffffffffffff021916908373ffffffffffffffffffffffffffffffffffffffff16021790555060208201518160010190805190602001906102c29291906108a2565b50604082015181600201555050606442446001546102e09190610e9c565b6102ea9190610e9c565b6102f49190610fdf565b60018190555061033b6040518060400160405280600d81526020017f736565642076616c7565203a20000000000000000000000000000000000000008152506001546107dd565b60326001541161049a57600066038d7ea4c68000905047811115610394576040517f08c379a000000000000000000000000000000000000000000000000000000000815260040161038b90610d5c565b60405180910390fd5b60003373ffffffffffffffffffffffffffffffffffffffff16826040516103ba90610c4e565b60006040518083038185875af1925050503d80600081146103f7576040519150601f19603f3d011682016040523d82523d6000602084013e6103fc565b606091505b5050905080610440576040517f08c379a000000000000000000000000000000000000000000000000000000000815260040161043790610d3c565b60405180910390fd5b3373ffffffffffffffffffffffffffffffffffffffff167f6d1607feb02544462392cd79bc9fc3cea2a1dd50600d5b503009b84ae27748ca4285600160405161048b93929190610d97565b60405180910390a250506104ee565b3373ffffffffffffffffffffffffffffffffffffffff167f6d1607feb02544462392cd79bc9fc3cea2a1dd50600d5b503009b84ae27748ca428360006040516104e593929190610d97565b60405180910390a25b50565b60036020528060005260406000206000915090505481565b600061054c6040518060400160405280601681526020017f7765206861766520256420746f74616c207761766573000000000000000000008152506000546107dd565b600054905090565b60606002805480602002602001604051908101604052809291908181526020016000905b8282101561069c57838290600052602060002090600302016040518060600160405290816000820160009054906101000a900473ffffffffffffffffffffffffffffffffffffffff1673ffffffffffffffffffffffffffffffffffffffff1673ffffffffffffffffffffffffffffffffffffffff16815260200160018201805461060190610f7c565b80601f016020809104026020016040519081016040528092919081815260200182805461062d90610f7c565b801561067a5780601f1061064f5761010080835404028352916020019161067a565b820191906000526020600020905b81548152906001019060200180831161065d57829003601f168201915b5050505050815260200160028201548152505081526020019060010190610578565b50505050905090565b61073b816040516024016106b99190610c85565b6040516020818303038152906040527f41304fac000000000000000000000000000000000000000000000000000000007bffffffffffffffffffffffffffffffffffffffffffffffffffffffff19166020820180517bffffffffffffffffffffffffffffffffffffffffffffffffffffffff8381831617835250505050610879565b50565b6107d883838360405160240161075693929190610ca7565b6040516020818303038152906040527fe0e9ad4f000000000000000000000000000000000000000000000000000000007bffffffffffffffffffffffffffffffffffffffffffffffffffffffff19166020820180517bffffffffffffffffffffffffffffffffffffffffffffffffffffffff8381831617835250505050610879565b505050565b61087582826040516024016107f3929190610cec565b6040516020818303038152906040527f9710a9d0000000000000000000000000000000000000000000000000000000007bffffffffffffffffffffffffffffffffffffffffffffffffffffffff19166020820180517bffffffffffffffffffffffffffffffffffffffffffffffffffffffff8381831617835250505050610879565b5050565b60008151905060006a636f6e736f6c652e6c6f679050602083016000808483855afa5050505050565b8280546108ae90610f7c565b90600052602060002090601f0160209004810192826108d05760008555610917565b82601f106108e957805160ff1916838001178555610917565b82800160010185558215610917579182015b828111156109165782518255916020019190600101906108fb565b5b5090506109249190610928565b5090565b5b80821115610941576000816000905550600101610929565b5090565b600061095861095384610dfa565b610dd5565b90508281526020810184848401111561097057600080fd5b61097b848285610f3a565b509392505050565b600081359050610992816111a7565b92915050565b600082601f8301126109a957600080fd5b81356109b9848260208601610945565b91505092915050565b6000602082840312156109d457600080fd5b60006109e284828501610983565b91505092915050565b6000602082840312156109fd57600080fd5b600082013567ffffffffffffffff811115610a1757600080fd5b610a2384828501610998565b91505092915050565b6000610a388383610be0565b905092915050565b610a4981610ef2565b82525050565b610a5881610ef2565b82525050565b6000610a6982610e3b565b610a738185610e5e565b935083602082028501610a8585610e2b565b8060005b85811015610ac15784840389528151610aa28582610a2c565b9450610aad83610e51565b925060208a01995050600181019050610a89565b50829750879550505050505092915050565b610adc81610f04565b82525050565b6000610aed82610e46565b610af78185610e7a565b9350610b07818560208601610f49565b610b10816110cc565b840191505092915050565b6000610b2682610e46565b610b308185610e8b565b9350610b40818560208601610f49565b610b49816110cc565b840191505092915050565b6000610b61600083610e6f565b9150610b6c826110dd565b600082019050919050565b6000610b84600f83610e8b565b9150610b8f826110e0565b602082019050919050565b6000610ba7602883610e8b565b9150610bb282611109565b604082019050919050565b6000610bca603383610e8b565b9150610bd582611158565b604082019050919050565b6000606083016000830151610bf86000860182610a40565b5060208301518482036020860152610c108282610ae2565b9150506040830151610c256040860182610c30565b508091505092915050565b610c3981610f30565b82525050565b610c4881610f30565b82525050565b6000610c5982610b54565b9150819050919050565b60006020820190508181036000830152610c7d8184610a5e565b905092915050565b60006020820190508181036000830152610c9f8184610b1b565b905092915050565b60006060820190508181036000830152610cc18186610b1b565b9050610cd06020830185610a4f565b8181036040830152610ce28184610b1b565b9050949350505050565b60006040820190508181036000830152610d068185610b1b565b9050610d156020830184610c3f565b9392505050565b60006020820190508181036000830152610d3581610b77565b9050919050565b60006020820190508181036000830152610d5581610b9a565b9050919050565b60006020820190508181036000830152610d7581610bbd565b9050919050565b6000602082019050610d916000830184610c3f565b92915050565b6000606082019050610dac6000830186610c3f565b8181036020830152610dbe8185610b1b565b9050610dcd6040830184610ad3565b949350505050565b6000610ddf610df0565b9050610deb8282610fae565b919050565b6000604051905090565b600067ffffffffffffffff821115610e1557610e1461109d565b5b610e1e826110cc565b9050602081019050919050565b6000819050602082019050919050565b600081519050919050565b600081519050919050565b6000602082019050919050565b600082825260208201905092915050565b600081905092915050565b600082825260208201905092915050565b600082825260208201905092915050565b6000610ea782610f30565b9150610eb283610f30565b9250827fffffffffffffffffffffffffffffffffffffffffffffffffffffffffffffffff03821115610ee757610ee6611010565b5b828201905092915050565b6000610efd82610f10565b9050919050565b60008115159050919050565b600073ffffffffffffffffffffffffffffffffffffffff82169050919050565b6000819050919050565b82818337600083830152505050565b60005b83811015610f67578082015181840152602081019050610f4c565b83811115610f76576000848401525b50505050565b60006002820490506001821680610f9457607f821691505b60208210811415610fa857610fa761106e565b5b50919050565b610fb7826110cc565b810181811067ffffffffffffffff82111715610fd657610fd561109d565b5b80604052505050565b6000610fea82610f30565b9150610ff583610f30565b9250826110055761100461103f565b5b828206905092915050565b7f4e487b7100000000000000000000000000000000000000000000000000000000600052601160045260246000fd5b7f4e487b7100000000000000000000000000000000000000000000000000000000600052601260045260246000fd5b7f4e487b7100000000000000000000000000000000000000000000000000000000600052602260045260246000fd5b7f4e487b7100000000000000000000000000000000000000000000000000000000600052604160045260246000fd5b6000601f19601f8301169050919050565b50565b7f77616974203135207365636f6e64730000000000000000000000000000000000600082015250565b7f4661696c656420746f207769746864726177206d6f6e65792066726f6d20636f60008201527f6e74726163742e2e000000000000000000000000000000000000000000000000602082015250565b7f547279696e6720746f207769746864726177206d6f7265206d6f6e657920746860008201527f616e2074686520636f6e74726163742068617300000000000000000000000000602082015250565b6111b081610ef2565b81146111bb57600080fd5b5056fea264697066735822122095654d70129bcb1884e52930dcdb228f53d77ba618f7a7072c80e9008c2f677b64736f6c63430008040033",
  "linkReferences": {},
  "deployedLinkReferences": {}
}